{
  "_format": "hh-sol-artifact-1",
  "contractName": "WavePortal",
  "sourceName": "contracts/WavePortal.sol",
  "abi": [
    {
      "inputs": [],
      "stateMutability": "payable",
      "type": "constructor"
    },
    {
      "anonymous": false,
      "inputs": [
        {
          "indexed": true,
          "internalType": "address",
          "name": "from",
          "type": "address"
        },
        {
          "indexed": false,
          "internalType": "uint256",
          "name": "timestamp",
          "type": "uint256"
        },
        {
          "indexed": false,
          "internalType": "string",
          "name": "message",
          "type": "string"
        }
      ],
      "name": "NewWave",
      "type": "event"
    },
    {
      "inputs": [],
      "name": "getAllWaves",
      "outputs": [
        {
          "components": [
            {
              "internalType": "address",
              "name": "waver",
              "type": "address"
            },
            {
              "internalType": "string",
              "name": "message",
              "type": "string"
            },
            {
              "internalType": "uint256",
              "name": "timestamp",
              "type": "uint256"
            }
          ],
          "internalType": "struct WavePortal.Wave[]",
          "name": "",
          "type": "tuple[]"
        }
      ],
      "stateMutability": "view",
      "type": "function"
    },
    {
      "inputs": [],
      "name": "totalWaves",
      "outputs": [
        {
          "internalType": "uint256",
          "name": "",
          "type": "uint256"
        }
      ],
      "stateMutability": "view",
      "type": "function"
    },
    {
      "inputs": [
        {
          "internalType": "string",
          "name": "_message",
          "type": "string"
        }
      ],
      "name": "wave",
      "outputs": [],
      "stateMutability": "nonpayable",
      "type": "function"
    }
  ],
  "bytecode": "0x6080604052662386f26fc100006000556200005a6040518060400160405280601a81526020017f4865792c20697473206120736d61727420636f6e7472616374210000000000008152506200008260201b620005eb1760201c565b606444426200006a9190620001cf565b6200007691906200026c565b60018190555062000313565b62000122816040516024016200009991906200018f565b6040516020818303038152906040527f41304fac000000000000000000000000000000000000000000000000000000007bffffffffffffffffffffffffffffffffffffffffffffffffffffffff19166020820180517bffffffffffffffffffffffffffffffffffffffffffffffffffffffff83818316178352505050506200012560201b60201c565b50565b60008151905060006a636f6e736f6c652e6c6f679050602083016000808483855afa5050505050565b60006200015b82620001b3565b620001678185620001be565b93506200017981856020860162000236565b620001848162000302565b840191505092915050565b60006020820190508181036000830152620001ab81846200014e565b905092915050565b600081519050919050565b600082825260208201905092915050565b6000620001dc826200022c565b9150620001e9836200022c565b9250827fffffffffffffffffffffffffffffffffffffffffffffffffffffffffffffffff03821115620002215762000220620002a4565b5b828201905092915050565b6000819050919050565b60005b838110156200025657808201518184015260208101905062000239565b8381111562000266576000848401525b50505050565b600062000279826200022c565b915062000286836200022c565b925082620002995762000298620002d3565b5b828206905092915050565b7f4e487b7100000000000000000000000000000000000000000000000000000000600052601160045260246000fd5b7f4e487b7100000000000000000000000000000000000000000000000000000000600052601260045260246000fd5b6000601f19601f8301169050919050565b61116280620003236000396000f3fe608060405234801561001057600080fd5b50600436106100415760003560e01c8063291bcab314610046578063449d46c014610064578063bd43a90814610080575b600080fd5b61004e61009e565b60405161005b9190610d41565b60405180910390f35b61007e6004803603810190610079919061098f565b6100e9565b005b61008861049a565b6040516100959190610bf8565b60405180910390f35b60006100e16040518060400160405280601881526020017f256420697320746f74616c206e6f206f66207761766573210000000000000000815250600454610684565b600454905090565b42610384600360003373ffffffffffffffffffffffffffffffffffffffff1673ffffffffffffffffffffffffffffffffffffffff168152602001908152602001600020546101379190610e53565b10610177576040517f08c379a000000000000000000000000000000000000000000000000000000000815260040161016e90610ce1565b60405180910390fd5b60016004600082825461018a9190610e53565b925050819055506101d16040518060400160405280601e81526020017f2573206a7573742077617665642077697468206d6573736167652025732100008152503383610720565b600260405180606001604052803373ffffffffffffffffffffffffffffffffffffffff16815260200183815260200142815250908060018154018082558091505060019003906000526020600020906003020160009091909190915060008201518160000160006101000a81548173ffffffffffffffffffffffffffffffffffffffff021916908373ffffffffffffffffffffffffffffffffffffffff1602179055506020820151816001019080519060200190610290929190610884565b50604082015181600201555050606460015444426102ae9190610e53565b6102b89190610e53565b6102c29190610f8a565b6001819055506103096040518060400160405280601681526020017f52616e646f6d20232067656e6572617465643a20256400000000000000000000815250600154610684565b603260015411610353576103526040518060400160405280600781526020017f257320776f6e2100000000000000000000000000000000000000000000000000815250336107bf565b5b3373ffffffffffffffffffffffffffffffffffffffff167f5f7e16dc676677766a70e9c5628aa6c54ddb8b6e5188e2ae1e1f17f1ffbea716428360405161039b929190610d5c565b60405180910390a24760005411156103e8576040517f08c379a00000000000000000000000000000000000000000000000000000000081526004016103df90610d21565b60405180910390fd5b60003373ffffffffffffffffffffffffffffffffffffffff1660005460405161041090610be3565b60006040518083038185875af1925050503d806000811461044d576040519150601f19603f3d011682016040523d82523d6000602084013e610452565b606091505b5050905080610496576040517f08c379a000000000000000000000000000000000000000000000000000000000815260040161048d90610d01565b60405180910390fd5b5050565b60606002805480602002602001604051908101604052809291908181526020016000905b828210156105e257838290600052602060002090600302016040518060600160405290816000820160009054906101000a900473ffffffffffffffffffffffffffffffffffffffff1673ffffffffffffffffffffffffffffffffffffffff1673ffffffffffffffffffffffffffffffffffffffff16815260200160018201805461054790610f27565b80601f016020809104026020016040519081016040528092919081815260200182805461057390610f27565b80156105c05780601f10610595576101008083540402835291602001916105c0565b820191906000526020600020905b8154815290600101906020018083116105a357829003601f168201915b50505050508152602001600282015481525050815260200190600101906104be565b50505050905090565b610681816040516024016105ff9190610c1a565b6040516020818303038152906040527f41304fac000000000000000000000000000000000000000000000000000000007bffffffffffffffffffffffffffffffffffffffffffffffffffffffff19166020820180517bffffffffffffffffffffffffffffffffffffffffffffffffffffffff838183161783525050505061085b565b50565b61071c828260405160240161069a929190610cb1565b6040516020818303038152906040527f9710a9d0000000000000000000000000000000000000000000000000000000007bffffffffffffffffffffffffffffffffffffffffffffffffffffffff19166020820180517bffffffffffffffffffffffffffffffffffffffffffffffffffffffff838183161783525050505061085b565b5050565b6107ba83838360405160240161073893929190610c6c565b6040516020818303038152906040527fe0e9ad4f000000000000000000000000000000000000000000000000000000007bffffffffffffffffffffffffffffffffffffffffffffffffffffffff19166020820180517bffffffffffffffffffffffffffffffffffffffffffffffffffffffff838183161783525050505061085b565b505050565b61085782826040516024016107d5929190610c3c565b6040516020818303038152906040527f319af333000000000000000000000000000000000000000000000000000000007bffffffffffffffffffffffffffffffffffffffffffffffffffffffff19166020820180517bffffffffffffffffffffffffffffffffffffffffffffffffffffffff838183161783525050505061085b565b5050565b60008151905060006a636f6e736f6c652e6c6f679050602083016000808483855afa5050505050565b82805461089090610f27565b90600052602060002090601f0160209004810192826108b257600085556108f9565b82601f106108cb57805160ff19168380011785556108f9565b828001600101855582156108f9579182015b828111156108f85782518255916020019190600101906108dd565b5b509050610906919061090a565b5090565b5b8082111561092357600081600090555060010161090b565b5090565b600061093a61093584610db1565b610d8c565b90508281526020810184848401111561095257600080fd5b61095d848285610ee5565b509392505050565b600082601f83011261097657600080fd5b8135610986848260208601610927565b91505092915050565b6000602082840312156109a157600080fd5b600082013567ffffffffffffffff8111156109bb57600080fd5b6109c784828501610965565b91505092915050565b60006109dc8383610b75565b905092915050565b6109ed81610ea9565b82525050565b6109fc81610ea9565b82525050565b6000610a0d82610df2565b610a178185610e15565b935083602082028501610a2985610de2565b8060005b85811015610a655784840389528151610a4685826109d0565b9450610a5183610e08565b925060208a01995050600181019050610a2d565b50829750879550505050505092915050565b6000610a8282610dfd565b610a8c8185610e31565b9350610a9c818560208601610ef4565b610aa581611077565b840191505092915050565b6000610abb82610dfd565b610ac58185610e42565b9350610ad5818560208601610ef4565b610ade81611077565b840191505092915050565b6000610af6601083610e42565b9150610b0182611088565b602082019050919050565b6000610b19601283610e42565b9150610b24826110b1565b602082019050919050565b6000610b3c600083610e26565b9150610b47826110da565b600082019050919050565b6000610b5f602d83610e42565b9150610b6a826110dd565b604082019050919050565b6000606083016000830151610b8d60008601826109e4565b5060208301518482036020860152610ba58282610a77565b9150506040830151610bba6040860182610bc5565b508091505092915050565b610bce81610edb565b82525050565b610bdd81610edb565b82525050565b6000610bee82610b2f565b9150819050919050565b60006020820190508181036000830152610c128184610a02565b905092915050565b60006020820190508181036000830152610c348184610ab0565b905092915050565b60006040820190508181036000830152610c568185610ab0565b9050610c6560208301846109f3565b9392505050565b60006060820190508181036000830152610c868186610ab0565b9050610c9560208301856109f3565b8181036040830152610ca78184610ab0565b9050949350505050565b60006040820190508181036000830152610ccb8185610ab0565b9050610cda6020830184610bd4565b9392505050565b60006020820190508181036000830152610cfa81610ae9565b9050919050565b60006020820190508181036000830152610d1a81610b0c565b9050919050565b60006020820190508181036000830152610d3a81610b52565b9050919050565b6000602082019050610d566000830184610bd4565b92915050565b6000604082019050610d716000830185610bd4565b8181036020830152610d838184610ab0565b90509392505050565b6000610d96610da7565b9050610da28282610f59565b919050565b6000604051905090565b600067ffffffffffffffff821115610dcc57610dcb611048565b5b610dd582611077565b9050602081019050919050565b6000819050602082019050919050565b600081519050919050565b600081519050919050565b6000602082019050919050565b600082825260208201905092915050565b600081905092915050565b600082825260208201905092915050565b600082825260208201905092915050565b6000610e5e82610edb565b9150610e6983610edb565b9250827fffffffffffffffffffffffffffffffffffffffffffffffffffffffffffffffff03821115610e9e57610e9d610fbb565b5b828201905092915050565b6000610eb482610ebb565b9050919050565b600073ffffffffffffffffffffffffffffffffffffffff82169050919050565b6000819050919050565b82818337600083830152505050565b60005b83811015610f12578082015181840152602081019050610ef7565b83811115610f21576000848401525b50505050565b60006002820490506001821680610f3f57607f821691505b60208210811415610f5357610f52611019565b5b50919050565b610f6282611077565b810181811067ffffffffffffffff82111715610f8157610f80611048565b5b80604052505050565b6000610f9582610edb565b9150610fa083610edb565b925082610fb057610faf610fea565b5b828206905092915050565b7f4e487b7100000000000000000000000000000000000000000000000000000000600052601160045260246000fd5b7f4e487b7100000000000000000000000000000000000000000000000000000000600052601260045260246000fd5b7f4e487b7100000000000000000000000000000000000000000000000000000000600052602260045260246000fd5b7f4e487b7100000000000000000000000000000000000000000000000000000000600052604160045260246000fd5b6000601f19601f8301169050919050565b7f7761697420666f72203135206d696e7300000000000000000000000000000000600082015250565b7f6661696c6564207472616e73616374696f6e0000000000000000000000000000600082015250565b50565b7f747279696e6720746f207769746864726177206d6f7265207468616e2074686560008201527f20636f6e7472616374206861730000000000000000000000000000000000000060208201525056fea26469706673582212202b4bfb6596914ad4b0772d360783a7c96149f55f7e3586d07a2e6db3a7920d3264736f6c63430008040033",
  "linkReferences": {},
  "deployedLinkReferences": {}
}